:100B9C005A003A000D0A00215A00430049505F5296
:100BAC0053540D0A0053200020453A0020413A00CE
:100BBC00204B3A0052204F4B0D0A0045205A00445E
:100BCC00205A004820533D53746174757320523D74
:100BDC0052657365742045206E3D456E61626C658F
:100BEC002044206E3D44697361626C650D0A003FC0
:100BFC004552520D0A000D0A414C41524D20385AB3
:100C0C002076332E300D0A0052454144590D0A000E
:100D6500013DFF014200013E00024B000002400030
:040D75000001200059
:050D8900E5502430FFDD
:080D8E003099FDC2998F9922F2
:0C0D05002430FF120D8E7BFF7A0B79A0CA
:100D11008B518A528953AB51AA52A953120C81604B
:100D2100130553E5537002055214F9120C81FF1299
:050D31000D8E80E2229E
:100CC700E4FEEF70057F30020D8EEFD39400401BDA
:100CD700EF75F00A84E5F02430FDAC060E74512C54
:100CE700F8A605EF75F00A84FF80DFEED394004085
:0D0CF7000C74502EF8E6FF120D8E1E80EEDC
:010D040022CC
:100A020053D9BF43B20375F2FF75F3FF75F1FF755A
:100A1200A41075E10175E24075981053890F43895E
:100A220020538EF4438E01758D64D28ED299AF908D
:100A3200AEA0E4F542753DFFF540F541F520FDEF2E
:100A4200A805088002C313D8FC5401FC74182DF8C1
:100A5200A60474182DF8E6FC74082DF8A604742D6B
:100A62002DF8E4F6EEA805088002C313D8FC540161
:100A7200FC74102DF8A60474102DF8E6FC74352DC4
:0D0A8200F8A60474432DF8E4F60DBD08B28B
:010A8F002244
:0E0D7A00E4FFFE0FBF00010EEF64784E70F52F
:010D88002248
:1009620085904DE4F54EAF4EE54DA807088002C3D1
:1009720013D8FC5401FE7408254EF8E66E600E741E
:100982002D254EF876327408254EF8A606742D25CC
:100992004EF8E6D39400405B16742D254EF8E670AF
:1009A200527418254EF8E66E6049A6067BFF7A0B54
:1009B200799C120D11E54E2430FF120D8E7BFF7AC9
:1009C2000B799E120D11EE120D05EE7026047E00BB
:1009D200A84E088005C333CE33CED8F9FFEF553D7C
:1009E20060117542017BFF7A0B79A3120D11E54E5E
:0F09F200120D05054EE54EC39408500302096827
:010A010022D2
:100C1C00AEA0E4FDEEA805088002C313D8FC540175
:100C2C00FC74102DF8E66C600C74432DF87632745D
:100C3C00102DF8A60474432DF8E6D39400402F161B
:100C4C0074432DF8E6702774352DF8E66C601FA6FA
:100C5C00047BFF7A0B79A6120D11ED2430FF120DD7
:100C6C008E7BFF7A0B799E120D11EC120D050DED9A
:040C7C00640870A0F8
:010C80002251
:100D3600E580540170210541E54170020540C394E8
:100D4600B8E540940B4017E52070137520017BFF32
:0E0D56007A0B79A8020D11E4F540F541F52065
:010D6400226C
:060800008B4D8A4E894F6A
:10080600120C8164537070900001120C9A70687B10
:10081600FF7A0B79B1120D11E4FFFE74182EF8E67B
:10082600FDA806088002C333D8FC42070EBE08EBBB
:10083600120CC77BFF7A0B79B4120D11AF3D120C67
:10084600C77BFF7A0B79B8120D11AF42120CC7E4C1
:10085600FDFE74352EF8E6FFA806088002C333D8DD
:10086600FC42050EBE08EB7BFF7A0B79BC120D111C
:10087600AF05120CC78068AB4DAA4EA94F120C816A
:10088600B45213900001120C9A700BF5427BFF7A5A
:100896000B79C002095EAB4DAA4EA94F120C81FE20
:1008A60064457043900001120C9A642070399000E0
:1008B60002120C9AFFC39430402DEFD39437502781
:1008C600EF24D0F550FF7401A807088002C333D87F
:1008D600FC423D7BFF7A0B79C7120D11120D897B05
:1008E600FF7A0B79A08071EE6444704AAB4DAA4E34
:1008F600A94F900001120C9A6420703A90000212DF
:100906000C9AFFC39430402EEFD394375028EF242F
:10091600D0F550FF7401A807088002C333D8FCF451
:10092600523D7BFF7A0B79CB120D11120D897BFF9D
:100936007A0B79A08022AB4DAA4EA94F120C81B436
:100946004810900001120C9A70087BFF7A0B79CF41
:0B09560080067BFF7A0B79FB120D116D
:010961002273
:100B1C00120A027BFF7A0C7902120D117BFF7A0C00
:100B2C007914120D11120962120C1C120D36309828
:100B3C0052C29885993FE53F640D600DE53F640A0C
:100B4C006007E53EC3940A401BE53ED39400403356
:100B5C007421253EF8E4F6FB7A007921120800E4B2
:100B6C00F53E801FE53FC394204018E53FD3947EAB
:100B7C005011E53EC3940A500AAF3E053E74212F36
:100B8C00F8A63F120D7A054CE54C7099054B8095F3
:03000000020A9061
:0C0A9000787FE4F6D8FD758153020AD788
:100C8100BB010689828A83E0225002E722BBFE0271
:090C9100E32289828A83E49322A4
:100C9A00BB010CE58229F582E5833AF583E022500F
:100CAA0006E92582F8E622BBFE06E92582F8E22259
:0D0CBA00E58229F582E5833AF583E4932273
:100A9C00020B1CE493A3F8E493A34003F68001F249
:100AAC0008DFF48029E493A3F85407240CC8C3335B
:100ABC00C4540F4420C8834004F456800146F6DF2A
:100ACC00E4800B0102040810204080900D65E47E48
:100ADC00019360BCA3FF543F30E509541FFEE4931F
:100AEC00A360010ECF54C025E060A840B8E493A3E6
:100AFC00FAE493A3F8E493A3C8C582C8CAC583CA11
:100B0C00F0A3C8C582C8CAC583CADFE9DEE780BEC8
:010D79000079
:00000001FF
